{"contracts/Contract.sol":{"SupplyChain":{"abi":[{"inputs":[],"stateMutability":"nonpayable","type":"constructor"},{"anonymous":false,"inputs":[{"indexed":false,"internalType":"uint256","name":"tokenId","type":"uint256"}],"name":"TokenProduced","type":"event"},{"anonymous":false,"inputs":[{"indexed":false,"internalType":"uint256","name":"tokenId","type":"uint256"},{"indexed":false,"internalType":"address","name":"to","type":"address"},{"indexed":false,"internalType":"enum SupplyChain.State","name":"newState","type":"uint8"}],"name":"TokenTransferred","type":"event"},{"inputs":[{"internalType":"uint256","name":"_tokenId","type":"uint256"}],"name":"distribute","outputs":[],"stateMutability":"nonpayable","type":"function"},{"inputs":[{"internalType":"uint256","name":"_tokenId","type":"uint256"}],"name":"getTokenDetails","outputs":[{"components":[{"internalType":"uint256","name":"id","type":"uint256"},{"internalType":"enum SupplyChain.State","name":"state","type":"uint8"},{"internalType":"uint256","name":"ownerHistoryCount","type":"uint256"}],"internalType":"struct SupplyChain.Token","name":"","type":"tuple"}],"stateMutability":"view","type":"function"},{"inputs":[{"internalType":"address","name":"","type":"address"},{"internalType":"uint256","name":"","type":"uint256"}],"name":"ownedTokens","outputs":[{"internalType":"uint256","name":"","type":"uint256"}],"stateMutability":"view","type":"function"},{"inputs":[],"name":"produceToken","outputs":[],"stateMutability":"nonpayable","type":"function"},{"inputs":[],"name":"producer","outputs":[{"internalType":"address","name":"","type":"address"}],"stateMutability":"view","type":"function"},{"inputs":[{"internalType":"uint256","name":"_tokenId","type":"uint256"}],"name":"purchase","outputs":[],"stateMutability":"nonpayable","type":"function"},{"inputs":[{"internalType":"uint256","name":"_tokenId","type":"uint256"}],"name":"retail","outputs":[],"stateMutability":"nonpayable","type":"function"},{"inputs":[{"internalType":"uint256","name":"","type":"uint256"}],"name":"tokens","outputs":[{"internalType":"uint256","name":"id","type":"uint256"},{"internalType":"enum SupplyChain.State","name":"state","type":"uint8"},{"internalType":"uint256","name":"ownerHistoryCount","type":"uint256"}],"stateMutability":"view","type":"function"}],"evm":{"bytecode":{"linkReferences":{},"object":"608060405234801561001057600080fd5b50600080546001600160a01b03191633178155600155610984806100356000396000f3fe608060405234801561001057600080fd5b50600436106100885760003560e01c8063b201cca41161005b578063b201cca41461011d578063c1e0372814610130578063e149f03614610150578063efef39a11461017157600080fd5b80633333af701461008d57806337612672146100975780634f64b2be146100c757806391c05b0b1461010a575b600080fd5b610095610184565b005b6000546100aa906001600160a01b031681565b6040516001600160a01b0390911681526020015b60405180910390f35b6100fb6100d5366004610799565b600260208190526000918252604090912080546001820154919092015460ff9091169083565b6040516100be939291906107ea565b610095610118366004610799565b6102b9565b61009561012b366004610799565b610311565b61014361013e366004610799565b610364565b6040516100be919061080c565b61016361015e366004610836565b61042d565b6040519081526020016100be565b61009561017f366004610799565b61045e565b6000546001600160a01b031633146101e35760405162461bcd60e51b815260206004820152601c60248201527f4f6e6c792070726f64756365722063616e2063616c6c20746869732e0000000060448201526064015b60405180910390fd5b60018054600091826101f483610884565b909155506040805160608101825282815260006020808301828152838501839052858352600290915292902081518155915160018084018054959650929491929160ff19169083600381111561024c5761024c6107b2565b0217905550604091820151600290910155336000908152600360209081528282208054600181018255908352912001829055517f70a62acde09dc6bb95da644f661d1bcd6cbda8dc766be31c87f3e7ab535b96b6906102ae9083815260200190565b60405180910390a150565b8060008060008381526002602052604090206001015460ff1660038111156102e3576102e36107b2565b146103005760405162461bcd60e51b81526004016101da9061089d565b61030c338460016104ad565b505050565b8060018060008381526002602052604090206001015460ff16600381111561033b5761033b6107b2565b146103585760405162461bcd60e51b81526004016101da9061089d565b61030c338460026104ad565b604080516060810182526000808252602082018190529181019190915260015482106103ca5760405162461bcd60e51b81526020600482015260156024820152742a37b5b2b7103237b2b9903737ba1032bc34b9ba1760591b60448201526064016101da565b600082815260026020908152604091829020825160608101909352805483526001810154909183019060ff166003811115610407576104076107b2565b6003811115610418576104186107b2565b81526020016002820154815250509050919050565b6003602052816000526040600020818154811061044957600080fd5b90600052602060002001600091509150505481565b8060028060008381526002602052604090206001015460ff166003811115610488576104886107b2565b146104a55760405162461bcd60e51b81526004016101da9061089d565b61030c338460035b60015482106104f65760405162461bcd60e51b81526020600482015260156024820152742a37b5b2b7103237b2b9903737ba1032bc34b9ba1760591b60448201526064016101da565b600360008381526002602052604090206001015460ff16600381111561051e5761051e6107b2565b036105755760405162461bcd60e51b815260206004820152602160248201527f546f6b656e20697320616c72656164792077697468206120637573746f6d65726044820152601760f91b60648201526084016101da565b600082815260026020526040902060019081018054839260ff19909116908360038111156105a5576105a56107b2565b021790555060038160038111156105be576105be6107b2565b036105e65760008281526002602081905260408220018054916105e083610884565b91905055505b6105f0338361065d565b6001600160a01b038316600090815260036020908152604080832080546001810182559084529190922001839055517f27354ee20c10005a69279a9a3561326014f14344f96f8cd8ca331bf62642295490610650908490869085906108de565b60405180910390a1505050565b6001600160a01b038216600090815260036020526040812054905b81811015610793576001600160a01b03841660009081526003602052604090208054849190839081106106ad576106ad610909565b906000526020600020015403610781576001600160a01b03841660009081526003602052604090206106e060018461091f565b815481106106f0576106f0610909565b906000526020600020015460036000866001600160a01b03166001600160a01b03168152602001908152602001600020828154811061073157610731610909565b60009182526020808320909101929092556001600160a01b038616815260039091526040902080548061076657610766610938565b60019003818190600052602060002001600090559055610793565b8061078b81610884565b915050610678565b50505050565b6000602082840312156107ab57600080fd5b5035919050565b634e487b7160e01b600052602160045260246000fd5b600481106107e657634e487b7160e01b600052602160045260246000fd5b9052565b838152606081016107fe60208301856107c8565b826040830152949350505050565b815181526020808301516060830191610827908401826107c8565b50604092830151919092015290565b6000806040838503121561084957600080fd5b82356001600160a01b038116811461086057600080fd5b946020939093013593505050565b634e487b7160e01b600052601160045260246000fd5b6000600182016108965761089661086e565b5060010190565b60208082526021908201527f496e76616c696420746f6b656e20737461746520666f72207472616e736665726040820152601760f91b606082015260800190565b8381526001600160a01b03831660208201526060810161090160408301846107c8565b949350505050565b634e487b7160e01b600052603260045260246000fd5b818103818111156109325761093261086e565b92915050565b634e487b7160e01b600052603160045260246000fdfea2646970667358221220f9880625f58d67ae744bbb0c8e5df62bf45f77a84cfb42fcd702de31e85e59b264736f6c63430008110033","opcodes":"PUSH1 0x80 PUSH1 0x40 MSTORE CALLVALUE DUP1 ISZERO PUSH2 0x10 JUMPI PUSH1 0x0 DUP1 REVERT JUMPDEST POP PUSH1 0x0 DUP1 SLOAD PUSH1 0x1 PUSH1 0x1 PUSH1 0xA0 SHL SUB NOT AND CALLER OR DUP2 SSTORE PUSH1 0x1 SSTORE PUSH2 0x984 DUP1 PUSH2 0x35 PUSH1 0x0 CODECOPY PUSH1 0x0 RETURN INVALID PUSH1 0x80 PUSH1 0x40 MSTORE CALLVALUE DUP1 ISZERO PUSH2 0x10 JUMPI PUSH1 0x0 DUP1 REVERT JUMPDEST POP PUSH1 0x4 CALLDATASIZE LT PUSH2 0x88 JUMPI PUSH1 0x0 CALLDATALOAD PUSH1 0xE0 SHR DUP1 PUSH4 0xB201CCA4 GT PUSH2 0x5B JUMPI DUP1 PUSH4 0xB201CCA4 EQ PUSH2 0x11D JUMPI DUP1 PUSH4 0xC1E03728 EQ PUSH2 0x130 JUMPI DUP1 PUSH4 0xE149F036 EQ PUSH2 0x150 JUMPI DUP1 PUSH4 0xEFEF39A1 EQ PUSH2 0x171 JUMPI PUSH1 0x0 DUP1 REVERT JUMPDEST DUP1 PUSH4 0x3333AF70 EQ PUSH2 0x8D JUMPI DUP1 PUSH4 0x37612672 EQ PUSH2 0x97 JUMPI DUP1 PUSH4 0x4F64B2BE EQ PUSH2 0xC7 JUMPI DUP1 PUSH4 0x91C05B0B EQ PUSH2 0x10A JUMPI JUMPDEST PUSH1 0x0 DUP1 REVERT JUMPDEST PUSH2 0x95 PUSH2 0x184 JUMP JUMPDEST STOP JUMPDEST PUSH1 0x0 SLOAD PUSH2 0xAA SWAP1 PUSH1 0x1 PUSH1 0x1 PUSH1 0xA0 SHL SUB AND DUP2 JUMP JUMPDEST PUSH1 0x40 MLOAD PUSH1 0x1 PUSH1 0x1 PUSH1 0xA0 SHL SUB SWAP1 SWAP2 AND DUP2 MSTORE PUSH1 0x20 ADD JUMPDEST PUSH1 0x40 MLOAD DUP1 SWAP2 SUB SWAP1 RETURN JUMPDEST PUSH2 0xFB PUSH2 0xD5 CALLDATASIZE PUSH1 0x4 PUSH2 0x799 JUMP JUMPDEST PUSH1 0x2 PUSH1 0x20 DUP2 SWAP1 MSTORE PUSH1 0x0 SWAP2 DUP3 MSTORE PUSH1 0x40 SWAP1 SWAP2 KECCAK256 DUP1 SLOAD PUSH1 0x1 DUP3 ADD SLOAD SWAP2 SWAP1 SWAP3 ADD SLOAD PUSH1 0xFF SWAP1 SWAP2 AND SWAP1 DUP4 JUMP JUMPDEST PUSH1 0x40 MLOAD PUSH2 0xBE SWAP4 SWAP3 SWAP2 SWAP1 PUSH2 0x7EA JUMP JUMPDEST PUSH2 0x95 PUSH2 0x118 CALLDATASIZE PUSH1 0x4 PUSH2 0x799 JUMP JUMPDEST PUSH2 0x2B9 JUMP JUMPDEST PUSH2 0x95 PUSH2 0x12B CALLDATASIZE PUSH1 0x4 PUSH2 0x799 JUMP JUMPDEST PUSH2 0x311 JUMP JUMPDEST PUSH2 0x143 PUSH2 0x13E CALLDATASIZE PUSH1 0x4 PUSH2 0x799 JUMP JUMPDEST PUSH2 0x364 JUMP JUMPDEST PUSH1 0x40 MLOAD PUSH2 0xBE SWAP2 SWAP1 PUSH2 0x80C JUMP JUMPDEST PUSH2 0x163 PUSH2 0x15E CALLDATASIZE PUSH1 0x4 PUSH2 0x836 JUMP JUMPDEST PUSH2 0x42D JUMP JUMPDEST PUSH1 0x40 MLOAD SWAP1 DUP2 MSTORE PUSH1 0x20 ADD PUSH2 0xBE JUMP JUMPDEST PUSH2 0x95 PUSH2 0x17F CALLDATASIZE PUSH1 0x4 PUSH2 0x799 JUMP JUMPDEST PUSH2 0x45E JUMP JUMPDEST PUSH1 0x0 SLOAD PUSH1 0x1 PUSH1 0x1 PUSH1 0xA0 SHL SUB AND CALLER EQ PUSH2 0x1E3 JUMPI PUSH1 0x40 MLOAD PUSH3 0x461BCD PUSH1 0xE5 SHL DUP2 MSTORE PUSH1 0x20 PUSH1 0x4 DUP3 ADD MSTORE PUSH1 0x1C PUSH1 0x24 DUP3 ADD MSTORE PUSH32 0x4F6E6C792070726F64756365722063616E2063616C6C20746869732E00000000 PUSH1 0x44 DUP3 ADD MSTORE PUSH1 0x64 ADD JUMPDEST PUSH1 0x40 MLOAD DUP1 SWAP2 SUB SWAP1 REVERT JUMPDEST PUSH1 0x1 DUP1 SLOAD PUSH1 0x0 SWAP2 DUP3 PUSH2 0x1F4 DUP4 PUSH2 0x884 JUMP JUMPDEST SWAP1 SWAP2 SSTORE POP PUSH1 0x40 DUP1 MLOAD PUSH1 0x60 DUP2 ADD DUP3 MSTORE DUP3 DUP2 MSTORE PUSH1 0x0 PUSH1 0x20 DUP1 DUP4 ADD DUP3 DUP2 MSTORE DUP4 DUP6 ADD DUP4 SWAP1 MSTORE DUP6 DUP4 MSTORE PUSH1 0x2 SWAP1 SWAP2 MSTORE SWAP3 SWAP1 KECCAK256 DUP2 MLOAD DUP2 SSTORE SWAP2 MLOAD PUSH1 0x1 DUP1 DUP5 ADD DUP1 SLOAD SWAP6 SWAP7 POP SWAP3 SWAP5 SWAP2 SWAP3 SWAP2 PUSH1 0xFF NOT AND SWAP1 DUP4 PUSH1 0x3 DUP2 GT ISZERO PUSH2 0x24C JUMPI PUSH2 0x24C PUSH2 0x7B2 JUMP JUMPDEST MUL OR SWAP1 SSTORE POP PUSH1 0x40 SWAP2 DUP3 ADD MLOAD PUSH1 0x2 SWAP1 SWAP2 ADD SSTORE CALLER PUSH1 0x0 SWAP1 DUP2 MSTORE PUSH1 0x3 PUSH1 0x20 SWAP1 DUP2 MSTORE DUP3 DUP3 KECCAK256 DUP1 SLOAD PUSH1 0x1 DUP2 ADD DUP3 SSTORE SWAP1 DUP4 MSTORE SWAP2 KECCAK256 ADD DUP3 SWAP1 SSTORE MLOAD PUSH32 0x70A62ACDE09DC6BB95DA644F661D1BCD6CBDA8DC766BE31C87F3E7AB535B96B6 SWAP1 PUSH2 0x2AE SWAP1 DUP4 DUP2 MSTORE PUSH1 0x20 ADD SWAP1 JUMP JUMPDEST PUSH1 0x40 MLOAD DUP1 SWAP2 SUB SWAP1 LOG1 POP JUMP JUMPDEST DUP1 PUSH1 0x0 DUP1 PUSH1 0x0 DUP4 DUP2 MSTORE PUSH1 0x2 PUSH1 0x20 MSTORE PUSH1 0x40 SWAP1 KECCAK256 PUSH1 0x1 ADD SLOAD PUSH1 0xFF AND PUSH1 0x3 DUP2 GT ISZERO PUSH2 0x2E3 JUMPI PUSH2 0x2E3 PUSH2 0x7B2 JUMP JUMPDEST EQ PUSH2 0x300 JUMPI PUSH1 0x40 MLOAD PUSH3 0x461BCD PUSH1 0xE5 SHL DUP2 MSTORE PUSH1 0x4 ADD PUSH2 0x1DA SWAP1 PUSH2 0x89D JUMP JUMPDEST PUSH2 0x30C CALLER DUP5 PUSH1 0x1 PUSH2 0x4AD JUMP JUMPDEST POP POP POP JUMP JUMPDEST DUP1 PUSH1 0x1 DUP1 PUSH1 0x0 DUP4 DUP2 MSTORE PUSH1 0x2 PUSH1 0x20 MSTORE PUSH1 0x40 SWAP1 KECCAK256 PUSH1 0x1 ADD SLOAD PUSH1 0xFF AND PUSH1 0x3 DUP2 GT ISZERO PUSH2 0x33B JUMPI PUSH2 0x33B PUSH2 0x7B2 JUMP JUMPDEST EQ PUSH2 0x358 JUMPI PUSH1 0x40 MLOAD PUSH3 0x461BCD PUSH1 0xE5 SHL DUP2 MSTORE PUSH1 0x4 ADD PUSH2 0x1DA SWAP1 PUSH2 0x89D JUMP JUMPDEST PUSH2 0x30C CALLER DUP5 PUSH1 0x2 PUSH2 0x4AD JUMP JUMPDEST PUSH1 0x40 DUP1 MLOAD PUSH1 0x60 DUP2 ADD DUP3 MSTORE PUSH1 0x0 DUP1 DUP3 MSTORE PUSH1 0x20 DUP3 ADD DUP2 SWAP1 MSTORE SWAP2 DUP2 ADD SWAP2 SWAP1 SWAP2 MSTORE PUSH1 0x1 SLOAD DUP3 LT PUSH2 0x3CA JUMPI PUSH1 0x40 MLOAD PUSH3 0x461BCD PUSH1 0xE5 SHL DUP2 MSTORE PUSH1 0x20 PUSH1 0x4 DUP3 ADD MSTORE PUSH1 0x15 PUSH1 0x24 DUP3 ADD MSTORE PUSH21 0x2A37B5B2B7103237B2B9903737BA1032BC34B9BA17 PUSH1 0x59 SHL PUSH1 0x44 DUP3 ADD MSTORE PUSH1 0x64 ADD PUSH2 0x1DA JUMP JUMPDEST PUSH1 0x0 DUP3 DUP2 MSTORE PUSH1 0x2 PUSH1 0x20 SWAP1 DUP2 MSTORE PUSH1 0x40 SWAP2 DUP3 SWAP1 KECCAK256 DUP3 MLOAD PUSH1 0x60 DUP2 ADD SWAP1 SWAP4 MSTORE DUP1 SLOAD DUP4 MSTORE PUSH1 0x1 DUP2 ADD SLOAD SWAP1 SWAP2 DUP4 ADD SWAP1 PUSH1 0xFF AND PUSH1 0x3 DUP2 GT ISZERO PUSH2 0x407 JUMPI PUSH2 0x407 PUSH2 0x7B2 JUMP JUMPDEST PUSH1 0x3 DUP2 GT ISZERO PUSH2 0x418 JUMPI PUSH2 0x418 PUSH2 0x7B2 JUMP JUMPDEST DUP2 MSTORE PUSH1 0x20 ADD PUSH1 0x2 DUP3 ADD SLOAD DUP2 MSTORE POP POP SWAP1 POP SWAP2 SWAP1 POP JUMP JUMPDEST PUSH1 0x3 PUSH1 0x20 MSTORE DUP2 PUSH1 0x0 MSTORE PUSH1 0x40 PUSH1 0x0 KECCAK256 DUP2 DUP2 SLOAD DUP2 LT PUSH2 0x449 JUMPI PUSH1 0x0 DUP1 REVERT JUMPDEST SWAP1 PUSH1 0x0 MSTORE PUSH1 0x20 PUSH1 0x0 KECCAK256 ADD PUSH1 0x0 SWAP2 POP SWAP2 POP POP SLOAD DUP2 JUMP JUMPDEST DUP1 PUSH1 0x2 DUP1 PUSH1 0x0 DUP4 DUP2 MSTORE PUSH1 0x2 PUSH1 0x20 MSTORE PUSH1 0x40 SWAP1 KECCAK256 PUSH1 0x1 ADD SLOAD PUSH1 0xFF AND PUSH1 0x3 DUP2 GT ISZERO PUSH2 0x488 JUMPI PUSH2 0x488 PUSH2 0x7B2 JUMP JUMPDEST EQ PUSH2 0x4A5 JUMPI PUSH1 0x40 MLOAD PUSH3 0x461BCD PUSH1 0xE5 SHL DUP2 MSTORE PUSH1 0x4 ADD PUSH2 0x1DA SWAP1 PUSH2 0x89D JUMP JUMPDEST PUSH2 0x30C CALLER DUP5 PUSH1 0x3 JUMPDEST PUSH1 0x1 SLOAD DUP3 LT PUSH2 0x4F6 JUMPI PUSH1 0x40 MLOAD PUSH3 0x461BCD PUSH1 0xE5 SHL DUP2 MSTORE PUSH1 0x20 PUSH1 0x4 DUP3 ADD MSTORE PUSH1 0x15 PUSH1 0x24 DUP3 ADD MSTORE PUSH21 0x2A37B5B2B7103237B2B9903737BA1032BC34B9BA17 PUSH1 0x59 SHL PUSH1 0x44 DUP3 ADD MSTORE PUSH1 0x64 ADD PUSH2 0x1DA JUMP JUMPDEST PUSH1 0x3 PUSH1 0x0 DUP4 DUP2 MSTORE PUSH1 0x2 PUSH1 0x20 MSTORE PUSH1 0x40 SWAP1 KECCAK256 PUSH1 0x1 ADD SLOAD PUSH1 0xFF AND PUSH1 0x3 DUP2 GT ISZERO PUSH2 0x51E JUMPI PUSH2 0x51E PUSH2 0x7B2 JUMP JUMPDEST SUB PUSH2 0x575 JUMPI PUSH1 0x40 MLOAD PUSH3 0x461BCD PUSH1 0xE5 SHL DUP2 MSTORE PUSH1 0x20 PUSH1 0x4 DUP3 ADD MSTORE PUSH1 0x21 PUSH1 0x24 DUP3 ADD MSTORE PUSH32 0x546F6B656E20697320616C72656164792077697468206120637573746F6D6572 PUSH1 0x44 DUP3 ADD MSTORE PUSH1 0x17 PUSH1 0xF9 SHL PUSH1 0x64 DUP3 ADD MSTORE PUSH1 0x84 ADD PUSH2 0x1DA JUMP JUMPDEST PUSH1 0x0 DUP3 DUP2 MSTORE PUSH1 0x2 PUSH1 0x20 MSTORE PUSH1 0x40 SWAP1 KECCAK256 PUSH1 0x1 SWAP1 DUP2 ADD DUP1 SLOAD DUP4 SWAP3 PUSH1 0xFF NOT SWAP1 SWAP2 AND SWAP1 DUP4 PUSH1 0x3 DUP2 GT ISZERO PUSH2 0x5A5 JUMPI PUSH2 0x5A5 PUSH2 0x7B2 JUMP JUMPDEST MUL OR SWAP1 SSTORE POP PUSH1 0x3 DUP2 PUSH1 0x3 DUP2 GT ISZERO PUSH2 0x5BE JUMPI PUSH2 0x5BE PUSH2 0x7B2 JUMP JUMPDEST SUB PUSH2 0x5E6 JUMPI PUSH1 0x0 DUP3 DUP2 MSTORE PUSH1 0x2 PUSH1 0x20 DUP2 SWAP1 MSTORE PUSH1 0x40 DUP3 KECCAK256 ADD DUP1 SLOAD SWAP2 PUSH2 0x5E0 DUP4 PUSH2 0x884 JUMP JUMPDEST SWAP2 SWAP1 POP SSTORE POP JUMPDEST PUSH2 0x5F0 CALLER DUP4 PUSH2 0x65D JUMP JUMPDEST PUSH1 0x1 PUSH1 0x1 PUSH1 0xA0 SHL SUB DUP4 AND PUSH1 0x0 SWAP1 DUP2 MSTORE PUSH1 0x3 PUSH1 0x20 SWAP1 DUP2 MSTORE PUSH1 0x40 DUP1 DUP4 KECCAK256 DUP1 SLOAD PUSH1 0x1 DUP2 ADD DUP3 SSTORE SWAP1 DUP5 MSTORE SWAP2 SWAP1 SWAP3 KECCAK256 ADD DUP4 SWAP1 SSTORE MLOAD PUSH32 0x27354EE20C10005A69279A9A3561326014F14344F96F8CD8CA331BF626422954 SWAP1 PUSH2 0x650 SWAP1 DUP5 SWAP1 DUP7 SWAP1 DUP6 SWAP1 PUSH2 0x8DE JUMP JUMPDEST PUSH1 0x40 MLOAD DUP1 SWAP2 SUB SWAP1 LOG1 POP POP POP JUMP JUMPDEST PUSH1 0x1 PUSH1 0x1 PUSH1 0xA0 SHL SUB DUP3 AND PUSH1 0x0 SWAP1 DUP2 MSTORE PUSH1 0x3 PUSH1 0x20 MSTORE PUSH1 0x40 DUP2 KECCAK256 SLOAD SWAP1 JUMPDEST DUP2 DUP2 LT ISZERO PUSH2 0x793 JUMPI PUSH1 0x1 PUSH1 0x1 PUSH1 0xA0 SHL SUB DUP5 AND PUSH1 0x0 SWAP1 DUP2 MSTORE PUSH1 0x3 PUSH1 0x20 MSTORE PUSH1 0x40 SWAP1 KECCAK256 DUP1 SLOAD DUP5 SWAP2 SWAP1 DUP4 SWAP1 DUP2 LT PUSH2 0x6AD JUMPI PUSH2 0x6AD PUSH2 0x909 JUMP JUMPDEST SWAP1 PUSH1 0x0 MSTORE PUSH1 0x20 PUSH1 0x0 KECCAK256 ADD SLOAD SUB PUSH2 0x781 JUMPI PUSH1 0x1 PUSH1 0x1 PUSH1 0xA0 SHL SUB DUP5 AND PUSH1 0x0 SWAP1 DUP2 MSTORE PUSH1 0x3 PUSH1 0x20 MSTORE PUSH1 0x40 SWAP1 KECCAK256 PUSH2 0x6E0 PUSH1 0x1 DUP5 PUSH2 0x91F JUMP JUMPDEST DUP2 SLOAD DUP2 LT PUSH2 0x6F0 JUMPI PUSH2 0x6F0 PUSH2 0x909 JUMP JUMPDEST SWAP1 PUSH1 0x0 MSTORE PUSH1 0x20 PUSH1 0x0 KECCAK256 ADD SLOAD PUSH1 0x3 PUSH1 0x0 DUP7 PUSH1 0x1 PUSH1 0x1 PUSH1 0xA0 SHL SUB AND PUSH1 0x1 PUSH1 0x1 PUSH1 0xA0 SHL SUB AND DUP2 MSTORE PUSH1 0x20 ADD SWAP1 DUP2 MSTORE PUSH1 0x20 ADD PUSH1 0x0 KECCAK256 DUP3 DUP2 SLOAD DUP2 LT PUSH2 0x731 JUMPI PUSH2 0x731 PUSH2 0x909 JUMP JUMPDEST PUSH1 0x0 SWAP2 DUP3 MSTORE PUSH1 0x20 DUP1 DUP4 KECCAK256 SWAP1 SWAP2 ADD SWAP3 SWAP1 SWAP3 SSTORE PUSH1 0x1 PUSH1 0x1 PUSH1 0xA0 SHL SUB DUP7 AND DUP2 MSTORE PUSH1 0x3 SWAP1 SWAP2 MSTORE PUSH1 0x40 SWAP1 KECCAK256 DUP1 SLOAD DUP1 PUSH2 0x766 JUMPI PUSH2 0x766 PUSH2 0x938 JUMP JUMPDEST PUSH1 0x1 SWAP1 SUB DUP2 DUP2 SWAP1 PUSH1 0x0 MSTORE PUSH1 0x20 PUSH1 0x0 KECCAK256 ADD PUSH1 0x0 SWAP1 SSTORE SWAP1 SSTORE PUSH2 0x793 JUMP JUMPDEST DUP1 PUSH2 0x78B DUP2 PUSH2 0x884 JUMP JUMPDEST SWAP2 POP POP PUSH2 0x678 JUMP JUMPDEST POP POP POP POP JUMP JUMPDEST PUSH1 0x0 PUSH1 0x20 DUP3 DUP5 SUB SLT ISZERO PUSH2 0x7AB JUMPI PUSH1 0x0 DUP1 REVERT JUMPDEST POP CALLDATALOAD SWAP2 SWAP1 POP JUMP JUMPDEST PUSH4 0x4E487B71 PUSH1 0xE0 SHL PUSH1 0x0 MSTORE PUSH1 0x21 PUSH1 0x4 MSTORE PUSH1 0x24 PUSH1 0x0 REVERT JUMPDEST PUSH1 0x4 DUP2 LT PUSH2 0x7E6 JUMPI PUSH4 0x4E487B71 PUSH1 0xE0 SHL PUSH1 0x0 MSTORE PUSH1 0x21 PUSH1 0x4 MSTORE PUSH1 0x24 PUSH1 0x0 REVERT JUMPDEST SWAP1 MSTORE JUMP JUMPDEST DUP4 DUP2 MSTORE PUSH1 0x60 DUP2 ADD PUSH2 0x7FE PUSH1 0x20 DUP4 ADD DUP6 PUSH2 0x7C8 JUMP JUMPDEST DUP3 PUSH1 0x40 DUP4 ADD MSTORE SWAP5 SWAP4 POP POP POP POP JUMP JUMPDEST DUP2 MLOAD DUP2 MSTORE PUSH1 0x20 DUP1 DUP4 ADD MLOAD PUSH1 0x60 DUP4 ADD SWAP2 PUSH2 0x827 SWAP1 DUP5 ADD DUP3 PUSH2 0x7C8 JUMP JUMPDEST POP PUSH1 0x40 SWAP3 DUP4 ADD MLOAD SWAP2 SWAP1 SWAP3 ADD MSTORE SWAP1 JUMP JUMPDEST PUSH1 0x0 DUP1 PUSH1 0x40 DUP4 DUP6 SUB SLT ISZERO PUSH2 0x849 JUMPI PUSH1 0x0 DUP1 REVERT JUMPDEST DUP3 CALLDATALOAD PUSH1 0x1 PUSH1 0x1 PUSH1 0xA0 SHL SUB DUP2 AND DUP2 EQ PUSH2 0x860 JUMPI PUSH1 0x0 DUP1 REVERT JUMPDEST SWAP5 PUSH1 0x20 SWAP4 SWAP1 SWAP4 ADD CALLDATALOAD SWAP4 POP POP POP JUMP JUMPDEST PUSH4 0x4E487B71 PUSH1 0xE0 SHL PUSH1 0x0 MSTORE PUSH1 0x11 PUSH1 0x4 MSTORE PUSH1 0x24 PUSH1 0x0 REVERT JUMPDEST PUSH1 0x0 PUSH1 0x1 DUP3 ADD PUSH2 0x896 JUMPI PUSH2 0x896 PUSH2 0x86E JUMP JUMPDEST POP PUSH1 0x1 ADD SWAP1 JUMP JUMPDEST PUSH1 0x20 DUP1 DUP3 MSTORE PUSH1 0x21 SWAP1 DUP3 ADD MSTORE PUSH32 0x496E76616C696420746F6B656E20737461746520666F72207472616E73666572 PUSH1 0x40 DUP3 ADD MSTORE PUSH1 0x17 PUSH1 0xF9 SHL PUSH1 0x60 DUP3 ADD MSTORE PUSH1 0x80 ADD SWAP1 JUMP JUMPDEST DUP4 DUP2 MSTORE PUSH1 0x1 PUSH1 0x1 PUSH1 0xA0 SHL SUB DUP4 AND PUSH1 0x20 DUP3 ADD MSTORE PUSH1 0x60 DUP2 ADD PUSH2 0x901 PUSH1 0x40 DUP4 ADD DUP5 PUSH2 0x7C8 JUMP JUMPDEST SWAP5 SWAP4 POP POP POP POP JUMP JUMPDEST PUSH4 0x4E487B71 PUSH1 0xE0 SHL PUSH1 0x0 MSTORE PUSH1 0x32 PUSH1 0x4 MSTORE PUSH1 0x24 PUSH1 0x0 REVERT JUMPDEST DUP2 DUP2 SUB DUP2 DUP2 GT ISZERO PUSH2 0x932 JUMPI PUSH2 0x932 PUSH2 0x86E JUMP JUMPDEST SWAP3 SWAP2 POP POP JUMP JUMPDEST PUSH4 0x4E487B71 PUSH1 0xE0 SHL PUSH1 0x0 MSTORE PUSH1 0x31 PUSH1 0x4 MSTORE PUSH1 0x24 PUSH1 0x0 REVERT INVALID LOG2 PUSH5 0x6970667358 0x22 SLT KECCAK256 0xF9 DUP9 MOD 0x25 CREATE2 DUP14 PUSH8 0xAE744BBB0C8E5DF6 0x2B DELEGATECALL 0x5F PUSH24 0xA84CFB42FCD702DE31E85E59B264736F6C63430008110033 "},"methodIdentifiers":{"distribute(uint256)":"91c05b0b","getTokenDetails(uint256)":"c1e03728","ownedTokens(address,uint256)":"e149f036","produceToken()":"3333af70","producer()":"37612672","purchase(uint256)":"efef39a1","retail(uint256)":"b201cca4","tokens(uint256)":"4f64b2be"}}}}}