{
  "_format": "hh-sol-artifact-1",
  "contractName": "SupplyChain",
  "sourceName": "contracts/Contract.sol",
  "abi": [
    {
      "inputs": [],
      "stateMutability": "nonpayable",
      "type": "constructor"
    },
    {
      "anonymous": false,
      "inputs": [
        {
          "indexed": false,
          "internalType": "uint256",
          "name": "tokenId",
          "type": "uint256"
        }
      ],
      "name": "TokenProduced",
      "type": "event"
    },
    {
      "anonymous": false,
      "inputs": [
        {
          "indexed": false,
          "internalType": "uint256",
          "name": "tokenId",
          "type": "uint256"
        },
        {
          "indexed": false,
          "internalType": "address",
          "name": "to",
          "type": "address"
        },
        {
          "indexed": false,
          "internalType": "enum SupplyChain.State",
          "name": "newState",
          "type": "uint8"
        }
      ],
      "name": "TokenTransferred",
      "type": "event"
    },
    {
      "inputs": [
        {
          "internalType": "uint256",
          "name": "_tokenId",
          "type": "uint256"
        }
      ],
      "name": "distribute",
      "outputs": [],
      "stateMutability": "nonpayable",
      "type": "function"
    },
    {
      "inputs": [
        {
          "internalType": "uint256",
          "name": "_tokenId",
          "type": "uint256"
        }
      ],
      "name": "getTokenDetails",
      "outputs": [
        {
          "components": [
            {
              "internalType": "uint256",
              "name": "id",
              "type": "uint256"
            },
            {
              "internalType": "enum SupplyChain.State",
              "name": "state",
              "type": "uint8"
            },
            {
              "internalType": "uint256",
              "name": "ownerHistoryCount",
              "type": "uint256"
            }
          ],
          "internalType": "struct SupplyChain.Token",
          "name": "",
          "type": "tuple"
        }
      ],
      "stateMutability": "view",
      "type": "function"
    },
    {
      "inputs": [
        {
          "internalType": "address",
          "name": "",
          "type": "address"
        },
        {
          "internalType": "uint256",
          "name": "",
          "type": "uint256"
        }
      ],
      "name": "ownedTokens",
      "outputs": [
        {
          "internalType": "uint256",
          "name": "",
          "type": "uint256"
        }
      ],
      "stateMutability": "view",
      "type": "function"
    },
    {
      "inputs": [],
      "name": "produceToken",
      "outputs": [],
      "stateMutability": "nonpayable",
      "type": "function"
    },
    {
      "inputs": [],
      "name": "producer",
      "outputs": [
        {
          "internalType": "address",
          "name": "",
          "type": "address"
        }
      ],
      "stateMutability": "view",
      "type": "function"
    },
    {
      "inputs": [
        {
          "internalType": "uint256",
          "name": "_tokenId",
          "type": "uint256"
        }
      ],
      "name": "purchase",
      "outputs": [],
      "stateMutability": "nonpayable",
      "type": "function"
    },
    {
      "inputs": [
        {
          "internalType": "uint256",
          "name": "_tokenId",
          "type": "uint256"
        }
      ],
      "name": "retail",
      "outputs": [],
      "stateMutability": "nonpayable",
      "type": "function"
    },
    {
      "inputs": [
        {
          "internalType": "uint256",
          "name": "",
          "type": "uint256"
        }
      ],
      "name": "tokens",
      "outputs": [
        {
          "internalType": "uint256",
          "name": "id",
          "type": "uint256"
        },
        {
          "internalType": "enum SupplyChain.State",
          "name": "state",
          "type": "uint8"
        },
        {
          "internalType": "uint256",
          "name": "ownerHistoryCount",
          "type": "uint256"
        }
      ],
      "stateMutability": "view",
      "type": "function"
    }
  ],
  "bytecode": "0x608060405234801561001057600080fd5b50600080546001600160a01b03191633178155600155610984806100356000396000f3fe608060405234801561001057600080fd5b50600436106100885760003560e01c8063b201cca41161005b578063b201cca41461011d578063c1e0372814610130578063e149f03614610150578063efef39a11461017157600080fd5b80633333af701461008d57806337612672146100975780634f64b2be146100c757806391c05b0b1461010a575b600080fd5b610095610184565b005b6000546100aa906001600160a01b031681565b6040516001600160a01b0390911681526020015b60405180910390f35b6100fb6100d5366004610799565b600260208190526000918252604090912080546001820154919092015460ff9091169083565b6040516100be939291906107ea565b610095610118366004610799565b6102b9565b61009561012b366004610799565b610311565b61014361013e366004610799565b610364565b6040516100be919061080c565b61016361015e366004610836565b61042d565b6040519081526020016100be565b61009561017f366004610799565b61045e565b6000546001600160a01b031633146101e35760405162461bcd60e51b815260206004820152601c60248201527f4f6e6c792070726f64756365722063616e2063616c6c20746869732e0000000060448201526064015b60405180910390fd5b60018054600091826101f483610884565b909155506040805160608101825282815260006020808301828152838501839052858352600290915292902081518155915160018084018054959650929491929160ff19169083600381111561024c5761024c6107b2565b0217905550604091820151600290910155336000908152600360209081528282208054600181018255908352912001829055517f70a62acde09dc6bb95da644f661d1bcd6cbda8dc766be31c87f3e7ab535b96b6906102ae9083815260200190565b60405180910390a150565b8060008060008381526002602052604090206001015460ff1660038111156102e3576102e36107b2565b146103005760405162461bcd60e51b81526004016101da9061089d565b61030c338460016104ad565b505050565b8060018060008381526002602052604090206001015460ff16600381111561033b5761033b6107b2565b146103585760405162461bcd60e51b81526004016101da9061089d565b61030c338460026104ad565b604080516060810182526000808252602082018190529181019190915260015482106103ca5760405162461bcd60e51b81526020600482015260156024820152742a37b5b2b7103237b2b9903737ba1032bc34b9ba1760591b60448201526064016101da565b600082815260026020908152604091829020825160608101909352805483526001810154909183019060ff166003811115610407576104076107b2565b6003811115610418576104186107b2565b81526020016002820154815250509050919050565b6003602052816000526040600020818154811061044957600080fd5b90600052602060002001600091509150505481565b8060028060008381526002602052604090206001015460ff166003811115610488576104886107b2565b146104a55760405162461bcd60e51b81526004016101da9061089d565b61030c338460035b60015482106104f65760405162461bcd60e51b81526020600482015260156024820152742a37b5b2b7103237b2b9903737ba1032bc34b9ba1760591b60448201526064016101da565b600360008381526002602052604090206001015460ff16600381111561051e5761051e6107b2565b036105755760405162461bcd60e51b815260206004820152602160248201527f546f6b656e20697320616c72656164792077697468206120637573746f6d65726044820152601760f91b60648201526084016101da565b600082815260026020526040902060019081018054839260ff19909116908360038111156105a5576105a56107b2565b021790555060038160038111156105be576105be6107b2565b036105e65760008281526002602081905260408220018054916105e083610884565b91905055505b6105f0338361065d565b6001600160a01b038316600090815260036020908152604080832080546001810182559084529190922001839055517f27354ee20c10005a69279a9a3561326014f14344f96f8cd8ca331bf62642295490610650908490869085906108de565b60405180910390a1505050565b6001600160a01b038216600090815260036020526040812054905b81811015610793576001600160a01b03841660009081526003602052604090208054849190839081106106ad576106ad610909565b906000526020600020015403610781576001600160a01b03841660009081526003602052604090206106e060018461091f565b815481106106f0576106f0610909565b906000526020600020015460036000866001600160a01b03166001600160a01b03168152602001908152602001600020828154811061073157610731610909565b60009182526020808320909101929092556001600160a01b038616815260039091526040902080548061076657610766610938565b60019003818190600052602060002001600090559055610793565b8061078b81610884565b915050610678565b50505050565b6000602082840312156107ab57600080fd5b5035919050565b634e487b7160e01b600052602160045260246000fd5b600481106107e657634e487b7160e01b600052602160045260246000fd5b9052565b838152606081016107fe60208301856107c8565b826040830152949350505050565b815181526020808301516060830191610827908401826107c8565b50604092830151919092015290565b6000806040838503121561084957600080fd5b82356001600160a01b038116811461086057600080fd5b946020939093013593505050565b634e487b7160e01b600052601160045260246000fd5b6000600182016108965761089661086e565b5060010190565b60208082526021908201527f496e76616c696420746f6b656e20737461746520666f72207472616e736665726040820152601760f91b606082015260800190565b8381526001600160a01b03831660208201526060810161090160408301846107c8565b949350505050565b634e487b7160e01b600052603260045260246000fd5b818103818111156109325761093261086e565b92915050565b634e487b7160e01b600052603160045260246000fdfea2646970667358221220f9880625f58d67ae744bbb0c8e5df62bf45f77a84cfb42fcd702de31e85e59b264736f6c63430008110033",
  "linkReferences": {},
  "deployedLinkReferences": {}
}